:100000002CC050C04FC04EC04DC04CC0C4C24AC02E
:1000100049C048C047C075C224C344C043C042C0A1
:1000200041C000003A0037000000390036000102EC
:100030000408102040800402010800003B00380042
:1000400001010101010101010202020200000000A0
:100050000004030201000000970411241FBECFE535
:10006000D2E0DEBFCDBF20E0A2E7B0E001C01D922C
:10007000A23CB207E1F710E0A0E6B0E0EAEBF9E05D
:1000800002C005900D92A237B107D9F710E0CDE27A
:10009000D0E003C02197FE0188D4CC32D107D1F73C
:1000A00030D389C4ADCF3FB7F8948091A10090912F
:1000B000A200A091A300B091A40022B708B600FE50
:1000C00005C02F3F19F00196A11DB11D3FBFBA2FEA
:1000D000A92F982F8827BC01CD01620F711D811DAA
:1000E000911D43E0660F771F881F991F4A95D1F72E
:1000F0000895CF92DF92EF92FF92CF93DF936B013F
:100100007C01D1DFEB01CFDF6C1B7D0B683E7340C0
:10011000A0F0C114D104E104F10439F4DF91CF91CE
:10012000FF90EF90DF90CF90089581E0C81AD1083A
:10013000E108F108C851DC4FE6CFC114D104E10455
:10014000F10409F7EBCF0895909161009F3F29F1E9
:10015000981711F08F3F09F58CB1887D8CB91EBCC2
:100160001FBC1DBC1CBC1BBC1ABC19BC18BC1CB8D9
:1001700087E28BB981E08FBD83E08EBDE091AA005C
:10018000F091AB00309731F08091A900908180957B
:10019000892380838FEF8093610008952FB7F894AF
:1001A000FC01458556853AE06095089420F47BB3C0
:1001B00075237BBB04C07BB3742B7BBB00009BD23D
:1001C0009AD299D298D266953A9581F72FBF81E05D
:1001D00090E00895DC011F96ED91FC9120A131A1E2
:1001E00082A193A12817390779F0A2A1B3A1AE0F7C
:1001F000BF1F8C9122A133A12F5F3F4F2F71332757
:1002000033A322A390E008958FEF9FEF0895DC01C0
:100210001F96ED91FC9120A131A182A193A12817F5
:10022000390739F082A193A1E80FF91F808190E08E
:1002300008958FEF9FEF0895DC011F96ED91FC91DB
:1002400080A191A122A133A1821B930B8F719927C9
:100250000895CF92DF92EF92FF920F931F93CF9367
:10026000DF936C01EB017B01E40EF51E10E000E072
:10027000CE15DF0561F06991D601ED91FC910190F9
:10028000F081E02DC6010995080F191FF1CFC801B3
:10029000DF91CF911F910F91FF90EF90DF90CF9062
:1002A00008950F931F93CF93DF93FC0101900020DB
:1002B000E9F73197AF01481B590BBC0180EB90E087
:1002C000C8DFEC016DE080EB90E068DF8C016AE054
:1002D00080EB90E063DFC00FD11F8C0F9D1FDF917B
:1002E000CF911F910F910895FC0101900020E9F733
:1002F0003197AF01481B590BBC0180EB90E0A9CFAF
:1003000090E0FC01E25DFF4F2491FC01E05CFF4FB7
:10031000E491EE2371F0F0E0EE0FFF1FE85DFF4F78
:10032000A591B491EC91E22381E090E021F480E08A
:10033000089580E090E0089590E0FC01E45BFF4FB9
:100340003491FC01E25DFF4F2491FC01E05CFF4F22
:10035000E491EE23B9F0332329F03130A1F480B7D2
:100360008F7780BFF0E0EE0FFF1FE65CFF4FA59197
:10037000B4918FB7611117C0F894EC9120952E239A
:100380002C938FBF0895323019F480B78F7DE9CF59
:10039000333021F48FB58F778FBDE4CF343011F730
:1003A0008FB58F7DF9CFF894EC912E2BE9CFCF93B9
:1003B000DF9390E0FC01E25DFF4F2491805C9F4F52
:1003C000FC0184918823C9F090E0880F991FFC01FB
:1003D000EE5DFF4FA591B491FC01E65CFF4FC59126
:1003E000D49161110DC09FB7F8948C912095822310
:1003F0008C938881282328839FBFDF91CF91089514
:10040000623051F49FB7F8943C91822F80958323FA
:100410008C93E8812E2BEFCF8FB7F894EC912E2B95
:100420002C938FBFEACFCF92DF92EF92FF92409151
:100430006100493071F4C090AC00D090AD00E09004
:10044000AE00F090AF00C616D706E806F90609F42C
:1004500053C06B017C01C092AC00D092AD00E09221
:10046000AE00F092AF004F3F11F51EBC1FBC1DBC8B
:100470001CBC1BBC1ABC19BC18BC8CB1887D8CB9C7
:100480008BB187628BB988E08EBD88E390E0909352
:10049000AB008093AA0082E08093A9008FB58F7093
:1004A0008FBD61E089E083DF89E080936100809106
:1004B0006100893009F58EB5887F8EBD1DBC1CBCDE
:1004C00060E079E08DE390E0A70196014CD22150E5
:1004D0003109410951093BBD2ABD8FEF9FEFDC0176
:1004E0008093A5009093A600A093A700B093A800C6
:1004F000619A8EB581608EBDFF90EF90DF90CF90B6
:1005000008951F920F920FB60F9211242F933F93CD
:100510008F939F93AF93BF9380919D0090919E0086
:10052000A0919F00B091A00030919C0026E0230F85
:100530002D3768F129E8230F0396A11DB11D2093E3
:100540009C0080939D0090939E00A0939F00B09389
:10055000A0008091A1009091A200A091A300B09171
:10056000A4000196A11DB11D8093A1009093A2004B
:10057000A093A300B093A400BF91AF919F918F91DE
:100580003F912F910F900FBE0F901F9018950296DC
:10059000A11DB11DD4CF1F920F920FB60F9211243F
:1005A0002F933F934F935F936F937F938F939F937B
:1005B000AF93BF93EF93FF938091A5009091A60016
:1005C000A091A700B091A800892B8A2B8B2B61F1F9
:1005D0008091A5009091A600A091A700B091A800DD
:1005E000181619061A061B0694F58091A50090911D
:1005F000A600A091A700B091A8000197A109B10998
:100600008093A5009093A600A093A700B093A800A4
:100610008091A5009091A600A091A700B091A8009C
:10062000892B8A2B8B2B99F48FEF8EDDFF91EF9125
:10063000BF91AF919F918F917F916F915F914F91FA
:100640003F912F910F900FBE0F901F901895909192
:10065000A900E091AA00F091AB00808189278083F6
:10066000E5CF1F920F920FB60F9211242F933F9355
:100670004F935F937F938F939F93AF93BF93EF932A
:10068000FF934091BC0020E038E035D034D033D027
:1006900032D031D0889479B3742309F00894279527
:1006A0003A9509F0F3CF27D026D0E091BF00F09122
:1006B000C00080A191A101968F71992742A153A1F9
:1006C0008417950739F0A0A1B1A1AE0FBF1F2C93DD
:1006D00091A380A3449AFF91EF91BF91AF919F9115
:1006E0008F917F915F914F913F912F910F900FBE0E
:1006F0000F901F9018958091C100982F9A95F1F74F
:10070000089583E080BF83BF789499B7916099BFC3
:1007100091E09FBD8EBD86E886B962E08AE047DE43
:1007200061E089E044DE61E088E041DE61E088E08C
:1007300003DE60E086E03BDE60E085E038DE60E01E
:1007400083E035DE60E082E032DE60E081E02FDED3
:1007500060E084E02CDE60E080E029DE60E084E0A0
:10076000EBDD60E080E0E8DD2FB7F89480919D003C
:1007700090919E00A0919F00B091A0002FBF40914A
:1007800098005091990060919A0070919B00841B91
:10079000950BA60BB70B4997A105B10528F32FB709
:1007A000F89480919D0090919E00A0919F00B0913F
:1007B000A0002FBF8093980090939900A0939A0077
:1007C000B0939B0085E09CDDD82F83E099DDF82E67
:1007D00082E096DDC82F81E093DD082F84E090DD74
:1007E000182F80E08DDDDF29CD2BC02BC12BC82B2E
:1007F00080916000813039F4C11102C010929600DE
:10080000C0936000B1CF81110CC0C13051F4809110
:100810009700811103C061E088E08EDD109297009F
:10082000EFCFC111EDCF80919600D1E0D80FD093DA
:10083000960060E0DB3008F45AC096EF980F9A30CB
:1008400008F058C061E088E077DDD035C8F28091CB
:1008500097008111D5CF81E0809397008AE050DD29
:10086000892BB1F560E088E067DD6CEA78E080E034
:1008700090E0D9DD64E670E080E090E03ADC61E091
:1008800088E05ADD68E775E080E090E0CCDD64E662
:1008900070E080E090E02DDC60E088E04DDD6BE80A
:1008A00076E080E090E0BFDD64E670E080E090E01C
:1008B00020DC61E088E040DD6CEA78E080E090E0F8
:1008C000B2DD64E670E080E090E013DC89E03CDCBF
:1008D00060E088E031DD61E086E069DD60ED77E0D1
:1008E00080E090E006DC60E086E061DD61E088E0C9
:1008F00023DD86CF9CEE980F9A3010F460E0A3CFF2
:1009000092EE980F9A3008F49DCF98ED980F9A3098
:10091000A8F39EEC980F9A3008F494CF94EC980FBB
:100920009A3060F386548A3008F08FCF8BCFE0EB9B
:10093000F0E01382128288EE93E0A0E0B0E08483BE
:100940009583A683B78386E690E09183808382E7D0
:1009500090E0908B878784E0848782E085878DEFA5
:100960008687118A0895A1E21A2EAA1BBB1BFD01DE
:100970000DC0AA1FBB1FEE1FFF1FA217B307E4077E
:10098000F50720F0A21BB30BE40BF50B661F771FD6
:10099000881F991F1A9469F76095709580959095B6
:1009A0009B01AC01BD01CF010895EE0FFF1F059023
:0A09B000F491E02D0994F894FFCFB4
:1009BA0001FF00000000CE0029011C01EA00070126
:0209CA00A30088
:00000001FF
